:020000040000FA
:100000008316FF2390008312203084008001840A2D
:1000100060300402031C06281D30BF001330A2000C
:100020004A20F8213C08B8007C2336198316C030DA
:1000300087010B3085008312023099002820191F98
:100040002328BB231F282820191B1E28BB23242854
:10005000AA0123088207C128D028DA28E428EE283C
:10006000E428EE28E428EE28E428EE28E428EE2808
:10007000E428EE28E428EE28E428FB2808291229A1
:1000800008291C29262930292629402926295029D2
:100090005F2969290130B7000030DF210830F221E3
:1000A0000D3A03190800FF30B7000830DF21AB011B
:1000B0006520AC00AB0A6520B7002C08DF21AB0A35
:1000C00008302C060319080058282B088207013431
:1000D0000334073402340D34FF340E343F340F340C
:1000E000003410340034113400341234003413342A
:1000F00000341534FF3416343F341D3406342134B3
:1001000080342234403423342034243410342534D1
:100110000834263404342734023428340134293492
:1001200000342A3400342B3400342C3400342D3481
:1001300000342E34003453340034543400345534F5
:1001400000345634003457340034583400345934B1
:1001500000345A3400345B3400345C3400345D3491
:1001600000345E3400345F34003460340034613471
:10017000003462340034633400346434FF340834AF
:100180000D34B1010000201CCB28A20BCD28133068
:10019000A200A30A08001330A2000000000008001B
:1001A000B101000000000000000000002018D92864
:1001B000A30A0800B10100000000000000000000D8
:1001C00020186F29A30A0800A30A0310201803149B
:1001D000A90D00000000000000000800B1010000AF
:1001E0000000A30A201CF828291C6F290000080021
:1001F00029186F290800B101A10A2108A307201CB2
:100200000529291C6F290000080029186F290800FA
:10021000B10120186F29A30AA10A00000000000004
:100220000000080020186F292908A4000330A3004B
:100230003A10000000000800B10120186F292908B9
:10024000A5000330A300000000000800B101A30ACC
:10025000A10A0000000000000000000000000800EB
:10026000B1012908A60020183A290330A300000094
:1002700000000800A301A101A701A801A9017E298E
:100280002908A70020184A290330A3003A140000C7
:1002900000000800A301A101A801A9013A147E29C8
:1002A000B1012908A80020185A290330A300000032
:1002B00000000800A301A101A9013A147E29B1019F
:1002C000201C6F29A30AA10A000000000000000002
:1002D0000800B101201C6F29A301A1017E29133060
:1002E000A200A301A101A401A501A601A701A801E3
:1002F000A901AA012010A010201108002408250639
:100300002606270628062906031DB12B20121330C6
:10031000F221AB007F39031996292016A015AB1FD7
:10032000A0112406031D9629A016C52970302402A9
:10033000031CA42980302402031C0D2AC03024058C
:10034000C03A0319B029B12B24080319C52901307B
:10035000F2212406031DB12BA012B61AB12BC52918
:10036000B61EB12BA419B12B1130F2212406031DA6
:10037000B12B1230F2212506031DB12BA012260845
:10038000A5002708A6002808A7002508E039003A9C
:100390000319842B2013A013403A0319DC2A203AB6
:1003A0000319E72AE03A0319F42A603A03193D2AAF
:1003B000C03A0319CB2A803A0319012B192B831653
:1003C000F2218312370603190800370883169A00B2
:1003D0001C1555309D00AA309D009C149C18EE29D8
:1003E0008312080083169B001C141A08831208004D
:1003F0001330F221B3001530F221B4001630F2218F
:10040000B500B50DB50D1D30F221B6006330F221F7
:10041000BC006430F221BE00B12B201FA429A01F14
:10042000C62A3A1C1A2A2608A7002508A60024086E
:10043000A500452A2508A7000C30A41D0430A500FE
:1004400024080739A6002619332A0030F221AB0010
:10045000AB03E0302B05031DC82A0310AB0D0310BE
:100460002B0DA604452AA618452A26183A2A1C3020
:10047000A600452AFF30A600452A201E412AA01AC0
:10048000B12BA018452AA014B12BA0104730F2219F
:10049000AB000230AB19AB0227082B18643EAB1837
:1004A000C83EA7002608AB19643EA600B701473036
:1004B000DF2125080339031DB12B2608AB00AB0A49
:1004C000AB1BB12B25080C390C3A0319842A083AC6
:1004D0000319B22A0C3A031DB12B0C30271E04302D
:1004E000A50027080739AC002B08F221AE00AD01AA
:1004F0000314AC0AAD0DAC0B7A2A2D08AE04FF3AFA
:10050000A71DAE052E08A7002B03031D902AB701D7
:100510001330DF211D30F221B700B7121D30DF216B
:10052000A51DB22A01302B060319A52A0F302B0670
:100530000319A52A0F30F221AD00FF3A0319A52AAD
:100540001030F2212D06031DB12B2708B7002B0810
:10055000073A47300319AB001D3A07300319B705B6
:100560002B08DF212B08F2212706031DB12BFF30BA
:1005700085008700AC010830AB00AC0BBD2AAB0B8B
:10058000BD2A85018701A0132013F829A017B12BDC
:100590002013A013B12B25083F3A031DB12B260DC4
:1005A000A60C0314A60C0310A60C2616031C261278
:1005B0002608A500A51AE72A201EE02AA01EB12BB6
:1005C000A019ED2A20113618F02ABA14F12A201E9B
:1005D000EB2AA01EB12BA019E22A20113618E52A19
:1005E000BA10B61C5E237C2B34080F39A01E0F3ABC
:1005F000B900201EB90123303523B6185E237C23B1
:10060000B12B251E0E2B340E0F39A01E0F3AB90048
:10061000201EB901273035237C23B12B350E0F392D
:10062000A01E0F3AB900201EB9012B3035237C23C0
:10063000B12BB901A01AB9032508FE39DE3A031D12
:10064000B12B25182C2B2608A50053303523A50ED9
:10065000573035237C23B12B2608A5005B3035238A
:10066000A50E5F3035237C23B12BAB00A0103918C9
:10067000402B2B08F221B8042518402BFF3AB8056F
:10068000AB0AB9184A2B2B08F221B804A5184A2B3B
:10069000FF3AB805AB0A3919542B2B08F221B804DC
:1006A0002519542BFF3AB8052B0AB9195D2BF221F5
:1006B000B804A5195D2BFF3AB805080035080C39B8
:1006C000A01E0C3AB900201EB901B919702B2130B7
:1006D000F221FF3AB805251ABA18702BFF3AB80470
:1006E00039197B2B2230F221FF3AB805251ABA1CA2
:1006F0007B2BFF3AB80408003C0838068700AB00A3
:10070000AB0C2B0C85000800A0102508003A03193B
:100710009D2B013A0319962BFE390A3A0319A92B8E
:100720002508FE39123A0319A12BB12BB70113305A
:10073000DF210630B7001D30DF212017B8017C23F0
:10074000F829A617251CA6132608B7001330DF21A9
:10075000B12B1D30F221B700B716251CB7121D3082
:10076000DF21B101AB01A401A501A601A701A801E8
:10077000A901A1010800AA0A2010FD302A07031CC4
:100780002014AF0BCB2B3808BF1F3E053C0687005B
:10079000B10B0800D12B1D300310BF0D0318BF068D
:1007A0000800361D08000D30F221A5002330352346
:1007B000A50E273035230E30F221B200A500250CFE
:1007C000250C2B3035237C23BA14191FBA1025129F
:1007D000BA18ED2B32182516EF2BB21825165E230A
:1007E0007C230301191BFF3ABA18FF3A0319F12BB6
:0207F000E42BF8
:084000000B00020001000900A1
:02400E00C43FAD
:02421000FF00AD
:00000001FF
