:020000040000FA
:100000008316FF2390008312203084008001840A2D
:1000100060300402031C06281D30BF001330A2000C
:100020004A20F6213C08B8007A2336198316C030DE
:1000300087010B3085008312023099002820191F98
:100040002328B9231F282820191B1E28B923242858
:10005000AA0123088207C128D028DA28E428EE283C
:10006000E428EE28E428EE28E428EE28E428EE2808
:10007000E428EE28E428EE28E428FB2808291229A1
:1000800008291C29262930292629402926295029D2
:100090005F2969290130B7000030DD210830F021E7
:1000A0000D3A03190800FF30B7000830DD21AB011D
:1000B0006520AC00AB0A6520B7002C08DD21AB0A37
:1000C00008302C060319080058282B088207013431
:1000D0000334073402340D34FF340E343F340F340C
:1000E000003410340034113400341234003413342A
:1000F00000341534FF3416343F341D3406342134B3
:1001000080342234403423342034243410342534D1
:100110000834263404342734023428340134293492
:1001200000342A3400342B3400342C3400342D3481
:1001300000342E34003453340034543400345534F5
:1001400000345634003457340034583400345934B1
:1001500000345A3400345B3400345C3400345D3491
:1001600000345E3400345F34003460340034613471
:10017000003462340034633400346434FF340834AF
:100180000D34B1010000201CCB28A20BCD28133068
:10019000A200A30A08001330A2000000000008001B
:1001A000B101000000000000000000002018D92864
:1001B000A30A0800B10100000000000000000000D8
:1001C00020186F29A30A0800A30A0310201803149B
:1001D000A90D00000000000000000800B1010000AF
:1001E0000000A30A201CF828291C6F290000080021
:1001F00029186F290800B101A10A2108A307201CB2
:100200000529291C6F290000080029186F290800FA
:10021000B10120186F29A30AA10A00000000000004
:100220000000080020186F292908A4000330A3004B
:100230003A10000000000800B10120186F292908B9
:10024000A5000330A300000000000800B101A30ACC
:10025000A10A0000000000000000000000000800EB
:10026000B1012908A60020183A290330A300000094
:1002700000000800A301A101A701A801A9017E298E
:100280002908A70020184A290330A3003A140000C7
:1002900000000800A301A101A801A9013A147E29C8
:1002A000B1012908A80020185A290330A300000032
:1002B00000000800A301A101A9013A147E29B1019F
:1002C000201C6F29A30AA10A000000000000000002
:1002D0000800B101201C6F29A301A1017E29133060
:1002E000A200A301A101A401A501A601A701A801E3
:1002F000A901AA012010A010201108002408250639
:100300002606270628062906031DAF2B20121330C8
:10031000F021AB007F39031996292016A015AB1FD9
:10032000A0112406031D9629A016C32970302402AB
:10033000031CA42980302402031C0B2AC03024058E
:10034000C03A0319B029AF2B24080319C32901307F
:10035000F0212406031DAF2BA012B61AAF2BC32920
:10036000B61EAF2B1130F0212406031DAF2B123027
:10037000F0212506031DAF2BA0122608A500270893
:10038000A6002808A7002508E039003A0319822BA7
:100390002013A013403A0319DA2A203A0319E52A58
:1003A000E03A0319F22A603A03193B2AC03A0319CA
:1003B000C92A803A0319FF2A172B8316F0218312CA
:1003C000370603190800370883169A001C155530A4
:1003D0009D00AA309D009C149C18EC2983120800F3
:1003E00083169B001C141A08831208001330F02196
:1003F000B3001530F021B4001630F021B500B50D72
:10040000B50D1D30F021B6006330F021BC00643022
:10041000F021BE00AF2B201FA429A01FC42A3A1C24
:10042000182A2608A7002508A6002408A500432AA4
:100430002508A7000C30A41D0430A50024080739A6
:10044000A6002619312A0030F021AB00AB03E030C2
:100450002B05031DC62A0310AB0D03102B0DA6049C
:10046000432AA618432A2618382A1C30A600432AF5
:10047000FF30A600432A201E3F2AA01AAF2BA01847
:10048000432AA014AF2BA0104730F021AB0002305C
:10049000AB19AB0227082B18643EAB18C83EA70067
:1004A0002608AB19643EA600B7014730DD212508B8
:1004B0000339031DAF2B2608AB00AB0AAB1BAF2BD8
:1004C00025080C390C3A0319822A083A0319B02A74
:1004D0000C3A031DAF2B0C30271E0430A500270853
:1004E0000739AC002B08F021AE00AD010314AC0AB3
:1004F000AD0DAC0B782A2D08AE04FF3AA71DAE0552
:100500002E08A7002B03031D8E2AB7011330DD210F
:100510001D30F021B700B7121D30DD21A51DB02A16
:1005200001302B060319A32A0F302B060319A32A27
:100530000F30F021AD00FF3A0319A32A1030F0214B
:100540002D06031DAF2B2708B7002B08073A4730AD
:100550000319AB001D3A07300319B7052B08DD213D
:100560002B08F0212706031DAF2BFF3085008700E5
:10057000AC010830AB00AC0BBB2AAB0BBB2A85012E
:100580008701A0132013F629A017AF2B2013A01367
:10059000AF2B25083F3A031DAF2B260DA60C0314E5
:1005A000A60C0310A60C2616031C26122608A5006E
:1005B000A51AE52A201EDE2AA01EAF2BA019EB2AC1
:1005C00020113618EE2ABA14EF2A201EE92AA01E9E
:1005D000AF2BA019E02A20113618E32ABA10B61C56
:1005E0005C237A2B34080F39A01E0F3AB900201E65
:1005F000B90123303323B6185C237A23AF2B251E91
:100600000C2B340E0F39A01E0F3AB900201EB90171
:10061000273033237A23AF2B350E0F39A01E0F3A24
:10062000B900201EB9012B3033237A23AF2BB90137
:10063000A01AB9032508FE39DE3A031DAF2B251891
:100640002A2B2608A50053303323A50E5730332319
:100650007A23AF2B2608A5005B303323A50E5F302D
:1006600033237A23AF2BAB00A01039183E2B2B0875
:10067000F021B80425183E2BFF3AB805AB0AB9188B
:10068000482B2B08F021B804A518482BFF3AB805D1
:10069000AB0A3919522B2B08F021B8042519522B1B
:1006A000FF3AB8052B0AB9195B2BF021B804A5193C
:1006B0005B2BFF3AB805080035080C39A01E0C3A30
:1006C000B900201EB901B9196E2B2130F021FF3A73
:1006D000B805251ABA186E2BFF3AB8043919792BC8
:1006E0002230F021FF3AB805251ABA1C792BFF3ABF
:1006F000B80408003C0838068700AB00AB0C2B0C94
:1007000085000800A0102508003A03199B2B013A28
:100710000319942BFE390A3A0319A72B2508FE3931
:10072000123A03199F2BAF2BB7011330DD2106308E
:10073000B7001D30DD212017B8017A23F629A6174E
:10074000251CA6132608B7001330DD21AF2B1D3062
:10075000F021B700B716251CB7121D30DD21B101FD
:10076000AB01A401A501A601A701A801A901A1014E
:100770000800AA0A2010FD302A07031C2014AF0B22
:10078000C92B3808BF1F3E053C068700B10B080087
:10079000CF2B1D300310BF0D0318BF060800361DF8
:1007A00008000D30F021A50023303323A50E27309B
:1007B00033230E30F021B200A500250C250C2B3080
:1007C00033237A23BA14191FBA102512BA18EB2B47
:1007D00032182516ED2BB21825165C237A23030157
:0E07E000191BFF3ABA18FF3A0319EF2BE22B50
:0207EE000034D5
:0207F0000034D3
:084000000B00020001000900A1
:02400E00C43FAD
:02421000FF00AD
:00000001FF
